{
  "_format": "hh-sol-artifact-1",
  "contractName": "RockPaperScissors",
  "sourceName": "contracts/rockpaperscissors.sol",
  "abi": [
    {
      "inputs": [],
      "stateMutability": "payable",
      "type": "constructor"
    },
    {
      "anonymous": false,
      "inputs": [
        {
          "indexed": false,
          "internalType": "enum RockPaperScissors.Outcomes",
          "name": "outcome",
          "type": "uint8"
        },
        {
          "indexed": false,
          "internalType": "enum RockPaperScissors.Moves",
          "name": "move",
          "type": "uint8"
        },
        {
          "indexed": false,
          "internalType": "enum RockPaperScissors.Moves",
          "name": "randomMove",
          "type": "uint8"
        },
        {
          "indexed": false,
          "internalType": "uint256",
          "name": "amount",
          "type": "uint256"
        }
      ],
      "name": "Result",
      "type": "event"
    },
    {
      "stateMutability": "payable",
      "type": "fallback"
    },
    {
      "inputs": [],
      "name": "MIN_BET",
      "outputs": [
        {
          "internalType": "uint256",
          "name": "",
          "type": "uint256"
        }
      ],
      "stateMutability": "view",
      "type": "function"
    },
    {
      "inputs": [],
      "name": "deposit",
      "outputs": [],
      "stateMutability": "payable",
      "type": "function"
    },
    {
      "inputs": [],
      "name": "getAddress",
      "outputs": [
        {
          "internalType": "address",
          "name": "",
          "type": "address"
        }
      ],
      "stateMutability": "view",
      "type": "function"
    },
    {
      "inputs": [],
      "name": "getBalance",
      "outputs": [
        {
          "internalType": "uint256",
          "name": "",
          "type": "uint256"
        }
      ],
      "stateMutability": "view",
      "type": "function"
    },
    {
      "inputs": [],
      "name": "getPlayerBalance",
      "outputs": [
        {
          "internalType": "uint256",
          "name": "",
          "type": "uint256"
        }
      ],
      "stateMutability": "view",
      "type": "function"
    },
    {
      "inputs": [
        {
          "internalType": "string",
          "name": "_move",
          "type": "string"
        },
        {
          "internalType": "string",
          "name": "_randomMove",
          "type": "string"
        }
      ],
      "name": "play",
      "outputs": [],
      "stateMutability": "payable",
      "type": "function"
    },
    {
      "stateMutability": "payable",
      "type": "receive"
    }
  ],
  "bytecode": "0x6080604052610c46806100136000396000f3fe6080604052600436106100595760003560e01c80630b01517c1461006257806312065fe01461008d5780631a63b5d2146100b857806338cc4831146100d45780636540742f146100ff578063d0e30db01461012a57610060565b3661006057005b005b34801561006e57600080fd5b50610077610134565b6040516100849190610691565b60405180910390f35b34801561009957600080fd5b506100a2610153565b6040516100af9190610691565b60405180910390f35b6100d260048036038101906100cd9190610806565b61015b565b005b3480156100e057600080fd5b506100e961052b565b6040516100f691906108bf565b60405180910390f35b34801561010b57600080fd5b50610114610533565b6040516101219190610691565b60405180910390f35b61013261053b565b005b60003373ffffffffffffffffffffffffffffffffffffffff1631905090565b600047905090565b6305f5e1003410156101a2576040517f08c379a00000000000000000000000000000000000000000000000000000000081526004016101999061095d565b60405180910390fd5b60006101ad8361053d565b905060006101ba8361053d565b905060008160038111156101d1576101d061097d565b5b8360038111156101e4576101e361097d565b5b036101f2576003905061031a565b600160038111156102065761020561097d565b5b8360038111156102195761021861097d565b5b14801561024957506003808111156102345761023361097d565b5b8260038111156102475761024661097d565b5b145b806102a85750600260038111156102635761026261097d565b5b8360038111156102765761027561097d565b5b1480156102a75750600160038111156102925761029161097d565b5b8260038111156102a5576102a461097d565b5b145b5b8061030657506003808111156102c1576102c061097d565b5b8360038111156102d4576102d361097d565b5b1480156103055750600260038111156102f0576102ef61097d565b5b8260038111156103035761030261097d565b5b145b5b156103145760019050610319565b600290505b5b6000600160038111156103305761032f61097d565b5b8260038111156103435761034261097d565b5b036104095760023461035591906109db565b905060003373ffffffffffffffffffffffffffffffffffffffff168260405161037d90610a4e565b60006040518083038185875af1925050503d80600081146103ba576040519150601f19603f3d011682016040523d82523d6000602084013e6103bf565b606091505b5050905080610403576040517f08c379a00000000000000000000000000000000000000000000000000000000081526004016103fa90610aaf565b60405180910390fd5b506104e6565b60038081111561041c5761041b61097d565b5b82600381111561042f5761042e61097d565b5b036104e55734905060003373ffffffffffffffffffffffffffffffffffffffff168260405161045d90610a4e565b60006040518083038185875af1925050503d806000811461049a576040519150601f19603f3d011682016040523d82523d6000602084013e61049f565b606091505b50509050806104e3576040517f08c379a00000000000000000000000000000000000000000000000000000000081526004016104da90610aaf565b60405180910390fd5b505b5b7fe8d6a228817d62c7d611037b21e801d5debd25cfc00816860e95a6b01b8235878285858460405161051b9493929190610b5f565b60405180910390a1505050505050565b600030905090565b6305f5e10081565b565b60006040518060400160405280600481526020017f726f636b00000000000000000000000000000000000000000000000000000000815250805190602001208280519060200120036105925760019050610673565b6040518060400160405280600581526020017f7061706572000000000000000000000000000000000000000000000000000000815250805190602001208280519060200120036105e55760029050610673565b6040518060400160405280600881526020017f73636973736f7273000000000000000000000000000000000000000000000000815250805190602001208280519060200120036106385760039050610673565b6040517f08c379a000000000000000000000000000000000000000000000000000000000815260040161066a90610bf0565b60405180910390fd5b919050565b6000819050919050565b61068b81610678565b82525050565b60006020820190506106a66000830184610682565b92915050565b6000604051905090565b600080fd5b600080fd5b600080fd5b600080fd5b6000601f19601f8301169050919050565b7f4e487b7100000000000000000000000000000000000000000000000000000000600052604160045260246000fd5b610713826106ca565b810181811067ffffffffffffffff82111715610732576107316106db565b5b80604052505050565b60006107456106ac565b9050610751828261070a565b919050565b600067ffffffffffffffff821115610771576107706106db565b5b61077a826106ca565b9050602081019050919050565b82818337600083830152505050565b60006107a96107a484610756565b61073b565b9050828152602081018484840111156107c5576107c46106c5565b5b6107d0848285610787565b509392505050565b600082601f8301126107ed576107ec6106c0565b5b81356107fd848260208601610796565b91505092915050565b6000806040838503121561081d5761081c6106b6565b5b600083013567ffffffffffffffff81111561083b5761083a6106bb565b5b610847858286016107d8565b925050602083013567ffffffffffffffff811115610868576108676106bb565b5b610874858286016107d8565b9150509250929050565b600073ffffffffffffffffffffffffffffffffffffffff82169050919050565b60006108a98261087e565b9050919050565b6108b98161089e565b82525050565b60006020820190506108d460008301846108b0565b92915050565b600082825260208201905092915050565b7f426574206d7573742062652067726561746572207468616e206f72206571756160008201527f6c20746f20746865206d696e696d756d20626574000000000000000000000000602082015250565b60006109476034836108da565b9150610952826108eb565b604082019050919050565b600060208201905081810360008301526109768161093a565b9050919050565b7f4e487b7100000000000000000000000000000000000000000000000000000000600052602160045260246000fd5b7f4e487b7100000000000000000000000000000000000000000000000000000000600052601160045260246000fd5b60006109e682610678565b91506109f183610678565b92508282026109ff81610678565b91508282048414831517610a1657610a156109ac565b5b5092915050565b600081905092915050565b50565b6000610a38600083610a1d565b9150610a4382610a28565b600082019050919050565b6000610a5982610a2b565b9150819050919050565b7f4661696c656420746f2073656e64204574686572000000000000000000000000600082015250565b6000610a996014836108da565b9150610aa482610a63565b602082019050919050565b60006020820190508181036000830152610ac881610a8c565b9050919050565b60048110610ae057610adf61097d565b5b50565b6000819050610af182610acf565b919050565b6000610b0182610ae3565b9050919050565b610b1181610af6565b82525050565b60048110610b2857610b2761097d565b5b50565b6000819050610b3982610b17565b919050565b6000610b4982610b2b565b9050919050565b610b5981610b3e565b82525050565b6000608082019050610b746000830187610b08565b610b816020830186610b50565b610b8e6040830185610b50565b610b9b6060830184610682565b95945050505050565b7f496e76616c6964206d6f76650000000000000000000000000000000000000000600082015250565b6000610bda600c836108da565b9150610be582610ba4565b602082019050919050565b60006020820190508181036000830152610c0981610bcd565b905091905056fea264697066735822122012945a61e8b778d2cdcb9ce7a8ceac04bcc94a481c7bd8afeb224a19c7e64ffe64736f6c63430008130033",
  "linkReferences": {},
  "deployedLinkReferences": {}
}