{
  "_format": "hh-sol-artifact-1",
  "contractName": "RockPaperScissors",
  "sourceName": "contracts/rockpaperscissors.sol",
  "abi": [
    {
      "inputs": [],
      "stateMutability": "payable",
      "type": "constructor"
    },
    {
      "anonymous": false,
      "inputs": [
        {
          "indexed": false,
          "internalType": "enum RockPaperScissors.Outcomes",
          "name": "outcome",
          "type": "uint8"
        },
        {
          "indexed": false,
          "internalType": "enum RockPaperScissors.Moves",
          "name": "move",
          "type": "uint8"
        },
        {
          "indexed": false,
          "internalType": "enum RockPaperScissors.Moves",
          "name": "randomMove",
          "type": "uint8"
        },
        {
          "indexed": false,
          "internalType": "uint256",
          "name": "amount",
          "type": "uint256"
        }
      ],
      "name": "Result",
      "type": "event"
    },
    {
      "stateMutability": "payable",
      "type": "fallback"
    },
    {
      "inputs": [],
      "name": "MIN_BET",
      "outputs": [
        {
          "internalType": "uint256",
          "name": "",
          "type": "uint256"
        }
      ],
      "stateMutability": "view",
      "type": "function"
    },
    {
      "inputs": [],
      "name": "deposit",
      "outputs": [],
      "stateMutability": "payable",
      "type": "function"
    },
    {
      "inputs": [],
      "name": "getAddress",
      "outputs": [
        {
          "internalType": "address",
          "name": "",
          "type": "address"
        }
      ],
      "stateMutability": "view",
      "type": "function"
    },
    {
      "inputs": [],
      "name": "getBalance",
      "outputs": [
        {
          "internalType": "uint256",
          "name": "",
          "type": "uint256"
        }
      ],
      "stateMutability": "view",
      "type": "function"
    },
    {
      "inputs": [
        {
          "internalType": "string",
          "name": "_move",
          "type": "string"
        },
        {
          "internalType": "string",
          "name": "_randomMove",
          "type": "string"
        }
      ],
      "name": "play",
      "outputs": [],
      "stateMutability": "payable",
      "type": "function"
    },
    {
      "stateMutability": "payable",
      "type": "receive"
    }
  ],
  "bytecode": "0x6080604052336000806101000a81548173ffffffffffffffffffffffffffffffffffffffff021916908373ffffffffffffffffffffffffffffffffffffffff160217905550610cd6806100536000396000f3fe60806040526004361061004e5760003560e01c806312065fe0146100575780631a63b5d21461008257806338cc48311461009e5780636540742f146100c9578063d0e30db0146100f457610055565b3661005557005b005b34801561006357600080fd5b5061006c6100fe565b6040516100799190610721565b60405180910390f35b61009c60048036038101906100979190610896565b610106565b005b3480156100aa57600080fd5b506100b361058f565b6040516100c0919061094f565b60405180910390f35b3480156100d557600080fd5b506100de610597565b6040516100eb9190610721565b60405180910390f35b6100fc61059f565b005b600047905090565b6305f5e10034101561014d576040517f08c379a0000000000000000000000000000000000000000000000000000000008152600401610144906109ed565b60405180910390fd5b610156826105a1565b600060146101000a81548160ff0219169083600381111561017a57610179610a0d565b5b0217905550600061018a826105a1565b905060008160038111156101a1576101a0610a0d565b5b600060149054906101000a900460ff1660038111156101c3576101c2610a0d565b5b036101d15760039050610326565b600160038111156101e5576101e4610a0d565b5b600060149054906101000a900460ff16600381111561020757610206610a0d565b5b148015610237575060038081111561022257610221610a0d565b5b82600381111561023557610234610a0d565b5b145b806102a557506002600381111561025157610250610a0d565b5b600060149054906101000a900460ff16600381111561027357610272610a0d565b5b1480156102a457506001600381111561028f5761028e610a0d565b5b8260038111156102a2576102a1610a0d565b5b145b5b8061031257506003808111156102be576102bd610a0d565b5b600060149054906101000a900460ff1660038111156102e0576102df610a0d565b5b1480156103115750600260038111156102fc576102fb610a0d565b5b82600381111561030f5761030e610a0d565b5b145b5b156103205760019050610325565b600290505b5b60006001600381111561033c5761033b610a0d565b5b82600381111561034f5761034e610a0d565b5b03610436576002346103619190610a6b565b905060008060009054906101000a900473ffffffffffffffffffffffffffffffffffffffff1673ffffffffffffffffffffffffffffffffffffffff16826040516103aa90610ade565b60006040518083038185875af1925050503d80600081146103e7576040519150601f19603f3d011682016040523d82523d6000602084013e6103ec565b606091505b5050905080610430576040517f08c379a000000000000000000000000000000000000000000000000000000000815260040161042790610b3f565b60405180910390fd5b50610534565b60038081111561044957610448610a0d565b5b82600381111561045c5761045b610a0d565b5b036105335734905060008060009054906101000a900473ffffffffffffffffffffffffffffffffffffffff1673ffffffffffffffffffffffffffffffffffffffff16826040516104ab90610ade565b60006040518083038185875af1925050503d80600081146104e8576040519150601f19603f3d011682016040523d82523d6000602084013e6104ed565b606091505b5050905080610531576040517f08c379a000000000000000000000000000000000000000000000000000000000815260040161052890610b3f565b60405180910390fd5b505b5b7fe8d6a228817d62c7d611037b21e801d5debd25cfc00816860e95a6b01b82358782600060149054906101000a900460ff1685846040516105789493929190610bef565b60405180910390a16105886106dc565b5050505050565b600030905090565b6305f5e10081565b565b60006040518060400160405280600481526020017f726f636b00000000000000000000000000000000000000000000000000000000815250805190602001208280519060200120036105f657600190506106d7565b6040518060400160405280600581526020017f70617065720000000000000000000000000000000000000000000000000000008152508051906020012082805190602001200361064957600290506106d7565b6040518060400160405280600881526020017f73636973736f72730000000000000000000000000000000000000000000000008152508051906020012082805190602001200361069c57600390506106d7565b6040517f08c379a00000000000000000000000000000000000000000000000000000000081526004016106ce90610c80565b60405180910390fd5b919050565b60008060146101000a81548160ff0219169083600381111561070157610700610a0d565b5b0217905550565b6000819050919050565b61071b81610708565b82525050565b60006020820190506107366000830184610712565b92915050565b6000604051905090565b600080fd5b600080fd5b600080fd5b600080fd5b6000601f19601f8301169050919050565b7f4e487b7100000000000000000000000000000000000000000000000000000000600052604160045260246000fd5b6107a38261075a565b810181811067ffffffffffffffff821117156107c2576107c161076b565b5b80604052505050565b60006107d561073c565b90506107e1828261079a565b919050565b600067ffffffffffffffff8211156108015761080061076b565b5b61080a8261075a565b9050602081019050919050565b82818337600083830152505050565b6000610839610834846107e6565b6107cb565b90508281526020810184848401111561085557610854610755565b5b610860848285610817565b509392505050565b600082601f83011261087d5761087c610750565b5b813561088d848260208601610826565b91505092915050565b600080604083850312156108ad576108ac610746565b5b600083013567ffffffffffffffff8111156108cb576108ca61074b565b5b6108d785828601610868565b925050602083013567ffffffffffffffff8111156108f8576108f761074b565b5b61090485828601610868565b9150509250929050565b600073ffffffffffffffffffffffffffffffffffffffff82169050919050565b60006109398261090e565b9050919050565b6109498161092e565b82525050565b60006020820190506109646000830184610940565b92915050565b600082825260208201905092915050565b7f426574206d7573742062652067726561746572207468616e206f72206571756160008201527f6c20746f20746865206d696e696d756d20626574000000000000000000000000602082015250565b60006109d760348361096a565b91506109e28261097b565b604082019050919050565b60006020820190508181036000830152610a06816109ca565b9050919050565b7f4e487b7100000000000000000000000000000000000000000000000000000000600052602160045260246000fd5b7f4e487b7100000000000000000000000000000000000000000000000000000000600052601160045260246000fd5b6000610a7682610708565b9150610a8183610708565b9250828202610a8f81610708565b91508282048414831517610aa657610aa5610a3c565b5b5092915050565b600081905092915050565b50565b6000610ac8600083610aad565b9150610ad382610ab8565b600082019050919050565b6000610ae982610abb565b9150819050919050565b7f4661696c656420746f2073656e64204574686572000000000000000000000000600082015250565b6000610b2960148361096a565b9150610b3482610af3565b602082019050919050565b60006020820190508181036000830152610b5881610b1c565b9050919050565b60048110610b7057610b6f610a0d565b5b50565b6000819050610b8182610b5f565b919050565b6000610b9182610b73565b9050919050565b610ba181610b86565b82525050565b60048110610bb857610bb7610a0d565b5b50565b6000819050610bc982610ba7565b919050565b6000610bd982610bbb565b9050919050565b610be981610bce565b82525050565b6000608082019050610c046000830187610b98565b610c116020830186610be0565b610c1e6040830185610be0565b610c2b6060830184610712565b95945050505050565b7f496e76616c6964206d6f76650000000000000000000000000000000000000000600082015250565b6000610c6a600c8361096a565b9150610c7582610c34565b602082019050919050565b60006020820190508181036000830152610c9981610c5d565b905091905056fea2646970667358221220eb25c5fd155589acbecdc911bf48b43c098b981d8fa5ef56259b46d087194d3364736f6c63430008130033",
  "linkReferences": {},
  "deployedLinkReferences": {}
}